{
  "_format": "hh-sol-artifact-1",
  "contractName": "DAppify",
  "sourceName": "contracts/dAppiffy.sol",
  "abi": [
    {
      "anonymous": false,
      "inputs": [
        {
          "indexed": false,
          "internalType": "uint256",
          "name": "dAppId",
          "type": "uint256"
        },
        {
          "indexed": false,
          "internalType": "string",
          "name": "dAppName",
          "type": "string"
        },
        {
          "indexed": false,
          "internalType": "string",
          "name": "description",
          "type": "string"
        },
        {
          "indexed": false,
          "internalType": "address",
          "name": "dAppreg",
          "type": "address"
        }
      ],
      "name": "dAppRegistered",
      "type": "event"
    },
    {
      "anonymous": false,
      "inputs": [
        {
          "indexed": false,
          "internalType": "uint256",
          "name": "userId",
          "type": "uint256"
        },
        {
          "indexed": false,
          "internalType": "string",
          "name": "firstName",
          "type": "string"
        },
        {
          "indexed": false,
          "internalType": "string",
          "name": "secondName",
          "type": "string"
        },
        {
          "indexed": false,
          "internalType": "string",
          "name": "userName",
          "type": "string"
        },
        {
          "indexed": false,
          "internalType": "uint256",
          "name": "Downloads",
          "type": "uint256"
        },
        {
          "indexed": false,
          "internalType": "address",
          "name": "myAddress",
          "type": "address"
        }
      ],
      "name": "userRegistered",
      "type": "event"
    },
    {
      "inputs": [],
      "name": "download",
      "outputs": [],
      "stateMutability": "nonpayable",
      "type": "function"
    },
    {
      "inputs": [],
      "name": "getAllDapps",
      "outputs": [
        {
          "components": [
            {
              "internalType": "uint256",
              "name": "dAppId",
              "type": "uint256"
            },
            {
              "internalType": "string",
              "name": "dAppName",
              "type": "string"
            },
            {
              "internalType": "string",
              "name": "description",
              "type": "string"
            },
            {
              "internalType": "address",
              "name": "dAppreg",
              "type": "address"
            }
          ],
          "internalType": "struct DAppify.dApp[]",
          "name": "",
          "type": "tuple[]"
        }
      ],
      "stateMutability": "view",
      "type": "function"
    },
    {
      "inputs": [],
      "name": "getAllUsers",
      "outputs": [
        {
          "components": [
            {
              "internalType": "uint256",
              "name": "userId",
              "type": "uint256"
            },
            {
              "internalType": "string",
              "name": "firstName",
              "type": "string"
            },
            {
              "internalType": "string",
              "name": "secondName",
              "type": "string"
            },
            {
              "internalType": "string",
              "name": "userName",
              "type": "string"
            },
            {
              "internalType": "uint256",
              "name": "Downloads",
              "type": "uint256"
            },
            {
              "internalType": "address",
              "name": "myAddress",
              "type": "address"
            }
          ],
          "internalType": "struct DAppify.User[]",
          "name": "",
          "type": "tuple[]"
        }
      ],
      "stateMutability": "view",
      "type": "function"
    },
    {
      "inputs": [
        {
          "internalType": "string",
          "name": "_userName",
          "type": "string"
        }
      ],
      "name": "getUser",
      "outputs": [
        {
          "components": [
            {
              "internalType": "uint256",
              "name": "userId",
              "type": "uint256"
            },
            {
              "internalType": "string",
              "name": "firstName",
              "type": "string"
            },
            {
              "internalType": "string",
              "name": "secondName",
              "type": "string"
            },
            {
              "internalType": "string",
              "name": "userName",
              "type": "string"
            },
            {
              "internalType": "uint256",
              "name": "Downloads",
              "type": "uint256"
            },
            {
              "internalType": "address",
              "name": "myAddress",
              "type": "address"
            }
          ],
          "internalType": "struct DAppify.User",
          "name": "",
          "type": "tuple"
        }
      ],
      "stateMutability": "view",
      "type": "function"
    },
    {
      "inputs": [
        {
          "internalType": "uint256",
          "name": "_dAppId",
          "type": "uint256"
        }
      ],
      "name": "getdApp",
      "outputs": [
        {
          "components": [
            {
              "internalType": "uint256",
              "name": "dAppId",
              "type": "uint256"
            },
            {
              "internalType": "string",
              "name": "dAppName",
              "type": "string"
            },
            {
              "internalType": "string",
              "name": "description",
              "type": "string"
            },
            {
              "internalType": "address",
              "name": "dAppreg",
              "type": "address"
            }
          ],
          "internalType": "struct DAppify.dApp",
          "name": "",
          "type": "tuple"
        }
      ],
      "stateMutability": "view",
      "type": "function"
    },
    {
      "inputs": [
        {
          "internalType": "string",
          "name": "_dAppName",
          "type": "string"
        },
        {
          "internalType": "string",
          "name": "_description",
          "type": "string"
        }
      ],
      "name": "registerDapp",
      "outputs": [],
      "stateMutability": "payable",
      "type": "function"
    },
    {
      "inputs": [
        {
          "internalType": "address",
          "name": "_myAdd",
          "type": "address"
        }
      ],
      "name": "registered",
      "outputs": [
        {
          "internalType": "bool",
          "name": "",
          "type": "bool"
        }
      ],
      "stateMutability": "view",
      "type": "function"
    },
    {
      "inputs": [
        {
          "internalType": "string",
          "name": "_firstName",
          "type": "string"
        },
        {
          "internalType": "string",
          "name": "_secondName",
          "type": "string"
        },
        {
          "internalType": "string",
          "name": "_userName",
          "type": "string"
        }
      ],
      "name": "signUp",
      "outputs": [],
      "stateMutability": "nonpayable",
      "type": "function"
    },
    {
      "inputs": [],
      "name": "totalUsers",
      "outputs": [
        {
          "internalType": "uint256",
          "name": "",
          "type": "uint256"
        }
      ],
      "stateMutability": "view",
      "type": "function"
    }
  ],
  "bytecode": "0x6080604052670de0b6b3a7640000600255735b38da6a701c568545dcfcb03fcb875f56beddc4600360006101000a81548173ffffffffffffffffffffffffffffffffffffffff021916908373ffffffffffffffffffffffffffffffffffffffff16021790555034801561007157600080fd5b506123bb806100816000396000f3fe6080604052600436106100865760003560e01c8063aec5ab0811610059578063aec5ab0814610138578063b2dd5c0714610163578063bff1f9e1146101a0578063cb2b6f14146101cb578063e2842d79146101f457610086565b80631fc93a3a1461008b57806331feb671146100c857806346d8066e146101055780634974bc2714610121575b600080fd5b34801561009757600080fd5b506100b260048036038101906100ad91906113a7565b61021f565b6040516100bf919061151e565b60405180910390f35b3480156100d457600080fd5b506100ef60048036038101906100ea9190611675565b6103d0565b6040516100fc9190611755565b60405180910390f35b61011f600480360381019061011a9190611777565b610628565b005b34801561012d57600080fd5b5061013661083b565b005b34801561014457600080fd5b5061014d6108dd565b60405161015a919061191b565b60405180910390f35b34801561016f57600080fd5b5061018a60048036038101906101859190611969565b610b1b565b60405161019791906119b1565b60405180910390f35b3480156101ac57600080fd5b506101b5610bb8565b6040516101c291906119db565b60405180910390f35b3480156101d757600080fd5b506101f260048036038101906101ed91906119f6565b610bc1565b005b34801561020057600080fd5b50610209610f8e565b6040516102169190611bf6565b60405180910390f35b6102276112d3565b600460008381526020019081526020016000206040518060800160405290816000820154815260200160018201805461025f90611c47565b80601f016020809104026020016040519081016040528092919081815260200182805461028b90611c47565b80156102d85780601f106102ad576101008083540402835291602001916102d8565b820191906000526020600020905b8154815290600101906020018083116102bb57829003601f168201915b505050505081526020016002820180546102f190611c47565b80601f016020809104026020016040519081016040528092919081815260200182805461031d90611c47565b801561036a5780601f1061033f5761010080835404028352916020019161036a565b820191906000526020600020905b81548152906001019060200180831161034d57829003601f168201915b505050505081526020016003820160009054906101000a900473ffffffffffffffffffffffffffffffffffffffff1673ffffffffffffffffffffffffffffffffffffffff1673ffffffffffffffffffffffffffffffffffffffff16815250509050919050565b6103d8611311565b6005826040516103e89190611cb4565b90815260200160405180910390206040518060c00160405290816000820154815260200160018201805461041b90611c47565b80601f016020809104026020016040519081016040528092919081815260200182805461044790611c47565b80156104945780601f1061046957610100808354040283529160200191610494565b820191906000526020600020905b81548152906001019060200180831161047757829003601f168201915b505050505081526020016002820180546104ad90611c47565b80601f01602080910402602001604051908101604052809291908181526020018280546104d990611c47565b80156105265780601f106104fb57610100808354040283529160200191610526565b820191906000526020600020905b81548152906001019060200180831161050957829003601f168201915b5050505050815260200160038201805461053f90611c47565b80601f016020809104026020016040519081016040528092919081815260200182805461056b90611c47565b80156105b85780601f1061058d576101008083540402835291602001916105b8565b820191906000526020600020905b81548152906001019060200180831161059b57829003601f168201915b50505050508152602001600482015481526020016005820160009054906101000a900473ffffffffffffffffffffffffffffffffffffffff1673ffffffffffffffffffffffffffffffffffffffff1673ffffffffffffffffffffffffffffffffffffffff16815250509050919050565b60003390506002543414610671576040517f08c379a000000000000000000000000000000000000000000000000000000000815260040161066890611d28565b60405180910390fd5b6000600360009054906101000a900473ffffffffffffffffffffffffffffffffffffffff1673ffffffffffffffffffffffffffffffffffffffff16346040516106b990611d79565b60006040518083038185875af1925050503d80600081146106f6576040519150601f19603f3d011682016040523d82523d6000602084013e6106fb565b606091505b50509050801561082d5760006001600081548092919061071a90611dbd565b91905055905060405180608001604052808281526020018681526020018581526020018473ffffffffffffffffffffffffffffffffffffffff16815250600460008381526020019081526020016000206000820151816000015560208201518160010190816107899190611fb1565b50604082015181600201908161079f9190611fb1565b5060608201518160030160006101000a81548173ffffffffffffffffffffffffffffffffffffffff021916908373ffffffffffffffffffffffffffffffffffffffff1602179055509050507f5ab842e33b816b22b6cbc7ccdd14beb0800e72a3edad87b403ec971bede5acbc8186868660405161081f94939291906120cb565b60405180910390a150610834565b5050610837565b50505b5050565b61084433610b1b565b610883576040517f08c379a000000000000000000000000000000000000000000000000000000000815260040161087a9061216a565b60405180910390fd5b600760003373ffffffffffffffffffffffffffffffffffffffff1673ffffffffffffffffffffffffffffffffffffffff16815260200190815260200160002060040160008154809291906108d690611dbd565b9190505550565b6060600060015467ffffffffffffffff8111156108fd576108fc61154a565b5b60405190808252806020026020018201604052801561093657816020015b6109236112d3565b81526020019060019003908161091b5790505b50905060005b600154811015610b1357600460008281526020019081526020016000206040518060800160405290816000820154815260200160018201805461097e90611c47565b80601f01602080910402602001604051908101604052809291908181526020018280546109aa90611c47565b80156109f75780601f106109cc576101008083540402835291602001916109f7565b820191906000526020600020905b8154815290600101906020018083116109da57829003601f168201915b50505050508152602001600282018054610a1090611c47565b80601f0160208091040260200160405190810160405280929190818152602001828054610a3c90611c47565b8015610a895780601f10610a5e57610100808354040283529160200191610a89565b820191906000526020600020905b815481529060010190602001808311610a6c57829003601f168201915b505050505081526020016003820160009054906101000a900473ffffffffffffffffffffffffffffffffffffffff1673ffffffffffffffffffffffffffffffffffffffff1673ffffffffffffffffffffffffffffffffffffffff1681525050828281518110610afb57610afa61218a565b5b6020026020010181905250808060010191505061093c565b508091505090565b600080600090505b600054811015610bad578273ffffffffffffffffffffffffffffffffffffffff166006600083815260200190815260200160002060050160009054906101000a900473ffffffffffffffffffffffffffffffffffffffff1673ffffffffffffffffffffffffffffffffffffffff1603610ba0576001915050610bb3565b8080600101915050610b23565b50600090505b919050565b60008054905090565b610bca81611267565b15610c0a576040517f08c379a0000000000000000000000000000000000000000000000000000000008152600401610c0190612205565b60405180910390fd5b60003390506000806000815480929190610c2390611dbd565b9190505590506040518060c00160405280828152602001868152602001858152602001848152602001600081526020018373ffffffffffffffffffffffffffffffffffffffff16815250600584604051610c7d9190611cb4565b9081526020016040518091039020600082015181600001556020820151816001019081610caa9190611fb1565b506040820151816002019081610cc09190611fb1565b506060820151816003019081610cd69190611fb1565b506080820151816004015560a08201518160050160006101000a81548173ffffffffffffffffffffffffffffffffffffffff021916908373ffffffffffffffffffffffffffffffffffffffff1602179055509050506040518060c00160405280828152602001868152602001858152602001848152602001600081526020018373ffffffffffffffffffffffffffffffffffffffff1681525060066000838152602001908152602001600020600082015181600001556020820151816001019081610da19190611fb1565b506040820151816002019081610db79190611fb1565b506060820151816003019081610dcd9190611fb1565b506080820151816004015560a08201518160050160006101000a81548173ffffffffffffffffffffffffffffffffffffffff021916908373ffffffffffffffffffffffffffffffffffffffff1602179055509050506040518060c00160405280828152602001868152602001858152602001848152602001600081526020018373ffffffffffffffffffffffffffffffffffffffff16815250600760008473ffffffffffffffffffffffffffffffffffffffff1673ffffffffffffffffffffffffffffffffffffffff168152602001908152602001600020600082015181600001556020820151816001019081610ec49190611fb1565b506040820151816002019081610eda9190611fb1565b506060820151816003019081610ef09190611fb1565b506080820151816004015560a08201518160050160006101000a81548173ffffffffffffffffffffffffffffffffffffffff021916908373ffffffffffffffffffffffffffffffffffffffff1602179055509050507f08359044325b7c9914d1188d92216b069f6ac505de231ea10cf887d899bcc59e81868686600087604051610f7f96959493929190612260565b60405180910390a15050505050565b60606000805467ffffffffffffffff811115610fad57610fac61154a565b5b604051908082528060200260200182016040528015610fe657816020015b610fd3611311565b815260200190600190039081610fcb5790505b50905060005b60005481101561125f57600660008281526020019081526020016000206040518060c00160405290816000820154815260200160018201805461102e90611c47565b80601f016020809104026020016040519081016040528092919081815260200182805461105a90611c47565b80156110a75780601f1061107c576101008083540402835291602001916110a7565b820191906000526020600020905b81548152906001019060200180831161108a57829003601f168201915b505050505081526020016002820180546110c090611c47565b80601f01602080910402602001604051908101604052809291908181526020018280546110ec90611c47565b80156111395780601f1061110e57610100808354040283529160200191611139565b820191906000526020600020905b81548152906001019060200180831161111c57829003601f168201915b5050505050815260200160038201805461115290611c47565b80601f016020809104026020016040519081016040528092919081815260200182805461117e90611c47565b80156111cb5780601f106111a0576101008083540402835291602001916111cb565b820191906000526020600020905b8154815290600101906020018083116111ae57829003601f168201915b50505050508152602001600482015481526020016005820160009054906101000a900473ffffffffffffffffffffffffffffffffffffffff1673ffffffffffffffffffffffffffffffffffffffff1673ffffffffffffffffffffffffffffffffffffffff16815250508282815181106112475761124661218a565b5b60200260200101819052508080600101915050610fec565b508091505090565b600080600090505b6000548110156112c8578280519060200120600660008381526020019081526020016000206003016040516112a4919061236e565b6040518091039020036112bb5760019150506112ce565b808060010191505061126f565b50600090505b919050565b6040518060800160405280600081526020016060815260200160608152602001600073ffffffffffffffffffffffffffffffffffffffff1681525090565b6040518060c001604052806000815260200160608152602001606081526020016060815260200160008152602001600073ffffffffffffffffffffffffffffffffffffffff1681525090565b6000604051905090565b600080fd5b600080fd5b6000819050919050565b61138481611371565b811461138f57600080fd5b50565b6000813590506113a18161137b565b92915050565b6000602082840312156113bd576113bc611367565b5b60006113cb84828501611392565b91505092915050565b6113dd81611371565b82525050565b600081519050919050565b600082825260208201905092915050565b60005b8381101561141d578082015181840152602081019050611402565b60008484015250505050565b6000601f19601f8301169050919050565b6000611445826113e3565b61144f81856113ee565b935061145f8185602086016113ff565b61146881611429565b840191505092915050565b600073ffffffffffffffffffffffffffffffffffffffff82169050919050565b600061149e82611473565b9050919050565b6114ae81611493565b82525050565b60006080830160008301516114cc60008601826113d4565b50602083015184820360208601526114e4828261143a565b915050604083015184820360408601526114fe828261143a565b915050606083015161151360608601826114a5565b508091505092915050565b6000602082019050818103600083015261153881846114b4565b905092915050565b600080fd5b600080fd5b7f4e487b7100000000000000000000000000000000000000000000000000000000600052604160045260246000fd5b61158282611429565b810181811067ffffffffffffffff821117156115a1576115a061154a565b5b80604052505050565b60006115b461135d565b90506115c08282611579565b919050565b600067ffffffffffffffff8211156115e0576115df61154a565b5b6115e982611429565b9050602081019050919050565b82818337600083830152505050565b6000611618611613846115c5565b6115aa565b90508281526020810184848401111561163457611633611545565b5b61163f8482856115f6565b509392505050565b600082601f83011261165c5761165b611540565b5b813561166c848260208601611605565b91505092915050565b60006020828403121561168b5761168a611367565b5b600082013567ffffffffffffffff8111156116a9576116a861136c565b5b6116b584828501611647565b91505092915050565b600060c0830160008301516116d660008601826113d4565b50602083015184820360208601526116ee828261143a565b91505060408301518482036040860152611708828261143a565b91505060608301518482036060860152611722828261143a565b915050608083015161173760808601826113d4565b5060a083015161174a60a08601826114a5565b508091505092915050565b6000602082019050818103600083015261176f81846116be565b905092915050565b6000806040838503121561178e5761178d611367565b5b600083013567ffffffffffffffff8111156117ac576117ab61136c565b5b6117b885828601611647565b925050602083013567ffffffffffffffff8111156117d9576117d861136c565b5b6117e585828601611647565b9150509250929050565b600081519050919050565b600082825260208201905092915050565b6000819050602082019050919050565b600060808301600083015161183360008601826113d4565b506020830151848203602086015261184b828261143a565b91505060408301518482036040860152611865828261143a565b915050606083015161187a60608601826114a5565b508091505092915050565b6000611891838361181b565b905092915050565b6000602082019050919050565b60006118b1826117ef565b6118bb81856117fa565b9350836020820285016118cd8561180b565b8060005b8581101561190957848403895281516118ea8582611885565b94506118f583611899565b925060208a019950506001810190506118d1565b50829750879550505050505092915050565b6000602082019050818103600083015261193581846118a6565b905092915050565b61194681611493565b811461195157600080fd5b50565b6000813590506119638161193d565b92915050565b60006020828403121561197f5761197e611367565b5b600061198d84828501611954565b91505092915050565b60008115159050919050565b6119ab81611996565b82525050565b60006020820190506119c660008301846119a2565b92915050565b6119d581611371565b82525050565b60006020820190506119f060008301846119cc565b92915050565b600080600060608486031215611a0f57611a0e611367565b5b600084013567ffffffffffffffff811115611a2d57611a2c61136c565b5b611a3986828701611647565b935050602084013567ffffffffffffffff811115611a5a57611a5961136c565b5b611a6686828701611647565b925050604084013567ffffffffffffffff811115611a8757611a8661136c565b5b611a9386828701611647565b9150509250925092565b600081519050919050565b600082825260208201905092915050565b6000819050602082019050919050565b600060c083016000830151611ae160008601826113d4565b5060208301518482036020860152611af9828261143a565b91505060408301518482036040860152611b13828261143a565b91505060608301518482036060860152611b2d828261143a565b9150506080830151611b4260808601826113d4565b5060a0830151611b5560a08601826114a5565b508091505092915050565b6000611b6c8383611ac9565b905092915050565b6000602082019050919050565b6000611b8c82611a9d565b611b968185611aa8565b935083602082028501611ba885611ab9565b8060005b85811015611be45784840389528151611bc58582611b60565b9450611bd083611b74565b925060208a01995050600181019050611bac565b50829750879550505050505092915050565b60006020820190508181036000830152611c108184611b81565b905092915050565b7f4e487b7100000000000000000000000000000000000000000000000000000000600052602260045260246000fd5b60006002820490506001821680611c5f57607f821691505b602082108103611c7257611c71611c18565b5b50919050565b600081905092915050565b6000611c8e826113e3565b611c988185611c78565b9350611ca88185602086016113ff565b80840191505092915050565b6000611cc08284611c83565b915081905092915050565b600082825260208201905092915050565b7f456e7465722074686520636f7272656374207072696365000000000000000000600082015250565b6000611d12601783611ccb565b9150611d1d82611cdc565b602082019050919050565b60006020820190508181036000830152611d4181611d05565b9050919050565b600081905092915050565b50565b6000611d63600083611d48565b9150611d6e82611d53565b600082019050919050565b6000611d8482611d56565b9150819050919050565b7f4e487b7100000000000000000000000000000000000000000000000000000000600052601160045260246000fd5b6000611dc882611371565b91507fffffffffffffffffffffffffffffffffffffffffffffffffffffffffffffffff8203611dfa57611df9611d8e565b5b600182019050919050565b60008190508160005260206000209050919050565b60006020601f8301049050919050565b600082821b905092915050565b600060088302611e677fffffffffffffffffffffffffffffffffffffffffffffffffffffffffffffffff82611e2a565b611e718683611e2a565b95508019841693508086168417925050509392505050565b6000819050919050565b6000611eae611ea9611ea484611371565b611e89565b611371565b9050919050565b6000819050919050565b611ec883611e93565b611edc611ed482611eb5565b848454611e37565b825550505050565b600090565b611ef1611ee4565b611efc818484611ebf565b505050565b5b81811015611f2057611f15600082611ee9565b600181019050611f02565b5050565b601f821115611f6557611f3681611e05565b611f3f84611e1a565b81016020851015611f4e578190505b611f62611f5a85611e1a565b830182611f01565b50505b505050565b600082821c905092915050565b6000611f8860001984600802611f6a565b1980831691505092915050565b6000611fa18383611f77565b9150826002028217905092915050565b611fba826113e3565b67ffffffffffffffff811115611fd357611fd261154a565b5b611fdd8254611c47565b611fe8828285611f24565b600060209050601f83116001811461201b5760008415612009578287015190505b6120138582611f95565b86555061207b565b601f19841661202986611e05565b60005b828110156120515784890151825560018201915060208501945060208101905061202c565b8683101561206e578489015161206a601f891682611f77565b8355505b6001600288020188555050505b505050505050565b600061208e826113e3565b6120988185611ccb565b93506120a88185602086016113ff565b6120b181611429565b840191505092915050565b6120c581611493565b82525050565b60006080820190506120e060008301876119cc565b81810360208301526120f28186612083565b905081810360408301526121068185612083565b905061211560608301846120bc565b95945050505050565b7f506c65617365207369676e557000000000000000000000000000000000000000600082015250565b6000612154600d83611ccb565b915061215f8261211e565b602082019050919050565b6000602082019050818103600083015261218381612147565b9050919050565b7f4e487b7100000000000000000000000000000000000000000000000000000000600052603260045260246000fd5b7f757365726e616d6520616c72656164792074616b656e00000000000000000000600082015250565b60006121ef601683611ccb565b91506121fa826121b9565b602082019050919050565b6000602082019050818103600083015261221e816121e2565b9050919050565b6000819050919050565b600061224a61224561224084612225565b611e89565b611371565b9050919050565b61225a8161222f565b82525050565b600060c08201905061227560008301896119cc565b81810360208301526122878188612083565b9050818103604083015261229b8187612083565b905081810360608301526122af8186612083565b90506122be6080830185612251565b6122cb60a08301846120bc565b979650505050505050565b60008190508160005260206000209050919050565b600081546122f881611c47565b6123028186611d48565b9450600182166000811461231d576001811461233257612365565b60ff1983168652811515820286019350612365565b61233b856122d6565b60005b8381101561235d5781548189015260018201915060208101905061233e565b838801955050505b50505092915050565b600061237a82846122eb565b91508190509291505056fea2646970667358221220a361c42279492d152a6a2b97c9e14c3357d496f342b0689e2a9b8f048bf6c67364736f6c63430008180033",
  "linkReferences": {},
  "deployedLinkReferences": {}
}